:100000000C9446000C9465000C9465000C946500FB
:100010000C9465000C9465000C9465000C946500CC
:100020000C9465000C9465000C9465000C946500BC
:100030000C9465000C94B4000C9465000C9465005D
:100040000C9465000C9465000C9465000C9465009C
:100050000C9465000C9465000C9465000C9465008C
:100060000C9465000C9465000C9465000C9465007C
:100070000C9465000C9465000C9465000C9465006C
:100080000C9465000C9465000C94650011241FBE4F
:10009000CFEFD0E4DEBFCDBF11E0A0E0B1E0EAECED
:1000A000F2E000E00BBF02C007900D92A231B10751
:1000B000D9F711E0A2E1B1E001C01D92A931B10769
:1000C000E1F70E944B010C9463010C940000CF9364
:1000D000C82F8A3019F48DE00E9467009091C0000B
:1000E00095FFFCCFC093C60080E090E0CF910895CB
:1000F00060930001709301018093020190930301CA
:100100006093120170931301809314019093150171
:1001100008958BE0809381008DE790E090938900B3
:100120008093880082E080936F0010928500109287
:1001300084008091000190910101A0910201B09191
:1001400003018093120190931301A0931401B093C3
:1001500015018FB780688FBF0895109281000895B0
:1001600081E08093160108951F920F920FB60F92AF
:1001700011240BB60F922F933F934F935F936F937E
:100180007F938F939F93AF93BF93EF93FF93809150
:10019000120190911301A0911401B09115010197E2
:1001A000A109B1098093120190931301A093140146
:1001B000B0931501892B8A2B8B2B91F40E94B000F0
:1001C0008091000190910101A0910201B091030181
:1001D0008093120190931301A0931401B093150121
:1001E000FF91EF91BF91AF919F918F917F916F910F
:1001F0005F914F913F912F910F900BBE0F900FBECB
:100200000F901F90189580B180958C7020911701E8
:10021000309118012130310541F038F0223031059C
:10022000E9F02330310519F12BC0883039F482E030
:1002300090E0909318018093170128C0843039F41E
:1002400083E090E090931801809317011FC081E034
:1002500090E0909318018093170118C08830B1F096
:1002600081E090E090931801809317010FC08430D3
:1002700069F081E090E0909318018093170106C027
:1002800081E090E090931801809317018CE888B981
:1002900085E48BB9089511B88FEF82B987B918B882
:1002A0008AB91BB865E070E080E090E00E947800B9
:1002B0000E9489000E940301809116018823E1F3C6
:0A02C00010921601F7CFF894FFCF5B
:1002CA0001000000000000020000000067000000BA
:0202DA00000022
:00000001FF
